:020000040800F2
:10000000E8750120610200087B470008C134000840
:1000100079470008CD0500082D55000800000000B4
:10002000000000000000000000000000A101000826
:100030009906000800000000FD010008BD49000805
:100040007B0200087B0200087B0200087B0200089C
:100050007B0200087B0200087B0200087B0200088C
:100060007B0200087B0200087B0200087B0200087C
:100070007B0200087B0200087B0200087B0200086C
:100080007B0200087B0200087B0200087B0200085C
:100090007B0200087B0200087B0200087B0200084C
:1000A0007B0200087B0200087B0200087B0200083C
:1000B0008D4A0008C94A0008054B00087B02000869
:1000C0007B0200087B0200087B020008054800084C
:1000D0007B020008215500087B0200087B02000813
:1000E000AD0600087B0200087B020008194C0008DE
:1000F0006D4C0008614C00087B0200087B02000880
:100100007B0200087B020008414B00087B020008CC
:100110007B020008355000087B0200087D4B000878
:100120007B0200087B020008D1050008DD050008FD
:100130007B0200087B0200087B0200087B020008AB
:100140007B0200087B0200087B0200087B0200089B
:100150007B0200087B020008E90500087B0200081A
:100160007B0200087B0200087B0200087B0200087B
:100170007B0200087B0200087B02000800000000F0
:100180007B0200087B020008DFF810D000F006F9BF
:1001900000480047056D0008AFF30080E8750120B6
:1001A0002C4B19680868B0E8F04F80F30988BFF35A
:1001B0006F8F4FF0000080F311887047000000003F
:1001C00008480068006880F308884FF0000080F35A
:1001D000148862B661B6BFF34F8FBFF36F8F00DF35
:1001E00000BF00BF08ED00E0DFF80C00016841F43B
:1001F00070010160704700BF88ED00E0EFF30980F7
:10020000BFF36F8F134B1A681EF0100F08BF20ED5D
:10021000108A20E9F04F106009B44FF0500080F3CD
:100220001188BFF34F8FBFF36F8F0AF04DFC4FF073
:10023000000080F3118809BC19680868B0E8F04F25
:100240001EF0100F08BFB0EC108A80F30988BFF3CE
:100250006F8F70476C000020EFF30580704700003F
:100260000648804706480047FEE7FEE7FEE7FEE750
:10027000FEE7FEE7FEE7FEE7FEE7FEE7714A00085D
:10028000890100082DE9F05F0546002092469B4653
:1002900088460646814640241BE02846414647469C
:1002A000224600F06AF853465A46C01A914110D3CC
:1002B00011461846224600F051F82D1A67EB010846
:1002C0004F4622460120002100F048F817EB0009B4
:1002D0004E41201EA4F10104DFDC484631462A4687
:1002E0004346BDE8F09F10B5431A934209D28318E4
:1002F000881803E010F8011D03F8011D521EF9D201
:1003000010BD40EA01039B0703D009E008C9121F92
:1003100008C0042AFAD203E011F8013B00F8013BBF
:10032000521EF9D210BDD2B201E000F8012B491ED5
:10033000FBD270470022F6E710B513460A46044682
:100340001946FFF7F0FF204610BD034611F8012BB8
:1003500000F8012B002AF9D118467047202A04DB47
:10036000203A00FA02F1002070479140C2F12003C8
:1003700020FA03F3194390407047202A04DB203A07
:1003800021FA02F00021704721FA02F3D040C2F1B5
:10039000200291400843194670470000064C074D63
:1003A00006E0E06840F0010394E807009847103445
:1003B000AC42F6D3FFF7ECFE60C9000880C9000824
:1003C00070B58C1810F8015B15F0070301D110F817
:1003D000013B2A1106D110F8012B03E010F8016B44
:1003E00001F8016B5B1EF9D12B0705D40023521EC7
:1003F0000DD401F8013BFAE710F8013BCB1A921C2F
:1004000003E013F8015B01F8015B521EF9D5A1422C
:10041000D8D3002070BD10B50146806B026C12F07D
:10042000500F05D0026CD20626D500F0F9F910BDA8
:10043000016C41F40071016401688A6812F0405F48
:1004400017D1027EAAB9CA6A12F4700F02D08A6864
:1004500052050ED44A6822F020024A60016C21F451
:1004600080710164016CC90403D4016C41F0010185
:10047000016400F0D3F910BD806BC26CBDE8104080
:100480000846104710B5806B40210164416C41F073
:100490000401416400F0C4F910BD10B5806B00F098
:1004A000BEF910BD464910B54A6822F440324A6090
:1004B0004A6843681A434A6001684A6822F48072B5
:1004C0004A6001684A68036942EA03224A60016897
:1004D0004A6822F040724A6001684A6883681A4399
:1004E0004A6001688A6822F400628A6001688A684A
:1004F000C3681A438A60816A6FF07062D1420168F2
:100500008A6822F070628A6001688A680CD0836A07
:100510001A438A6001688A6822F040528A60016842
:100520008A68C36A1A4301E022F040528A60016877
:100530008A6822F002028A6001688A68037E42EAC1
:1005400043028A6090F82010002901684A680FD0A1
:1005500042F400624A6001684A6822F460424A60DC
:1005600001684A68174C436A04EB43331A4301E0BD
:1005700022F400624A600168CA6A22F47002CA6208
:100580000168CA6A838B104C04EB03531A43CA6296
:1005900001688A6822F400728A6001688A6890F8AB
:1005A000303042EA43228A6001688A6822F480621D
:1005B0008A6001688A68406942EA8020886010BDCC
:1005C0000023014000E0FFFF0000F0FFFEE7000015
:1005D000014800F0CBBA0000A40F0020014800F051
:1005E000C5BA0000A0060020014800F0BFBA000014
:1005F0000410002001681823CAB2103AB2FBF3F2CB
:10060000054B6FF30901032A9B5CC36500D9091DE3
:10061000816508467047000070BC000810B50146AF
:1006200000208B698A6A4FF0C07453B1B3F5005F44
:1006300015D072B1012A0CD0022A0AD0032A09D19E
:1006400004E01AB1012A06D0022A03D1C96AC901FD
:1006500000D5012010BDC96AA142FAD010BD002A00
:10066000F7D0012AF2D0022AF3D0032AF3D010BD2A
:1006700030B50468256825F480252560046863602A
:100680008368402B036803D099600068C26030BD66
:100690009A600068C16030BD70470021C0EBC000A7
:1006A00001E000BF491C8842FBD87047054801683B
:1006B000C90405D5811401600348006806F09ABF9B
:1006C00070470000143C01404400002072B6FEE771
:1006D00078B50024009490F83C20012A19D001221A
:1006E00080F83C200A6807230568092A13D9EE68B8
:1006F0000A3A02EB420293409E43EE600B788A680E
:100700000A3B03EB43039A400368DD682A43DA603F
:1007100010E0022078BD2E6902EB420293409E4316
:100720002E610B788A6803EB43039A4003681D69C6
:100730002A431A614A681F23072A13D205686E6B81
:10074000521E02EB820293409E436E630B790A882D
:100750005B1E92B203EB83039A4003685D6B2A43EE
:100760005A6327E005680D2A12D22E6BD21F02EBC6
:10077000820293409E432E630B790A88DB1F92B25C
:1007800003EB83039A4003681D6B2A431A6311E04D
:10079000EE6A0D3A02EB820293409E43EE620B79C1
:1007A0000A880D3B92B203EB83039A400368DD6A2B
:1007B0002A43DA62164B0568144A9D4206D10D6839
:1007C000122D03D1556845F48005556005689D429A
:1007D00018D10B68102B01D0112B13D1536843F49F
:1007E00000035360096810290CD10A490A4A0968B4
:1007F000B1FBF2F101EB8101490000E0491E0091DB
:100800000029FBD180F83C40002078BD0023014046
:10081000002001405C00002040420F0070477047FC
:10082000704770B504004FF0000503D0206C00261F
:1008300010B107E0012070BD204600F01DF866648D
:1008400084F83C60206CC00610D4206C20F48850E2
:1008500040F0020020642046FFF724FE6664206C0E
:1008600020F0020040F00100206400E0012584F83F
:100870003C60284670BD000070B586B00646142165
:100880006846FFF757FD1D493068884234D11C483F
:100890000025016841F480710160006800F48070F7
:1008A000059017481438016841F0020101600068A2
:1008B000694600F002000590012000900320CDE978
:1008C0000105104800F0C4FA104C0F48C4E90005B7
:1008D0000015A560C4E90350400060618000A0617C
:1008E0004011C4E907052046656200F00FFA08B11F
:1008F000FFF7ECFEB463A66306B070BD00200140B4
:100900004438024000040240106402406C0500209C
:10091000F8B5044600200E46009094F83C100129DA
:1009200007D0012184F83C1021688B68DB0702D0D6
:1009300011E00220F8BD8B6843F001038B60404951
:10094000404B0968B1FBF3F101EB410100E0491EA6
:1009500000910029FBD121688B68DB0503D58B68EA
:1009600023F480738B6021688B68DB075DD0236C78
:1009700040F20165AB4343F4807323644968490541
:1009800005D5216C21F4005141F480512164216C82
:10099000C90404D5616C21F00601616400E0606463
:1009A00084F83C00A16B2948274DC863A16B2848F7
:1009B0000864A16B2748C86421686FF022000860B2
:1009C0002068416841F0806141602068816841F49D
:1009D000807181602168134632464C31A06B00F073
:1009E000FFF968681C49C006206806D0884224D1F7
:1009F000816811F0405F13D01FE08842F8D0174A99
:100A0000904203D1D1F80423D206F1D0144A904287
:100A100013D1D1F8041301F01F011029E8D30CE021
:100A2000816841F08041816007E0206C40F0100057
:100A30002064606C40F0010060640020F8BD00009C
:100A40005C00002040420F00002301401704000812
:100A50009B0400088504000800200140002101409B
:100A60000022014010B5040002D0607910B106E008
:100A7000012010BD00202071204600F005F8012063
:100A80006071002010BD000008B50068064988426A
:100A900008D10648016841F480510160006800F403
:100AA0008050009008BD0000003002403038024005
:100AB0002DE9F0410446876D00F0CCFA064694F823
:100AC00035000025022806D08020606584F8345067
:100AD0000120BDE8F0812068016821F01601016065
:100AE0002068416921F080014161206C08B9A06C47
:100AF00020B12068016821F00801016020680168C8
:100B000021F0010101600CE000F0A4FA801B05282F
:100B100007D920206065032084F8350084F834501C
:100B2000D7E720680068C007EED194F85C103F203A
:100B30008840B860012084F8350084F834500020E3
:100B4000C7E790F83510022903D0802141650120C4
:100B50007047052180F835100068016821F0010117
:100B6000016000207047406D704700002DE9F84398
:100B700004464FF00009CDF8009063484FF4165139
:100B8000A56D0068B0FBF1F72E6894F85C100820A2
:100B900000FA01F131420FD021680A6852070BD5E3
:100BA0000A6822F004020A6094F85C108840A86089
:100BB000606D40F00100606594F85C104FF0010832
:100BC00008FA01F0304208D021684969090604D5C5
:100BD000A860606D40F00200606594F85C1004202D
:100BE0008840304208D021680968890704D5A86088
:100BF000606D40F00400606594F85C10102088403F
:100C0000304218D021680968090714D5A860206807
:100C10000168490304D50068000308D5A16C07E00A
:100C20000168C90503D4016821F008010160216C45
:100C300009B12046884794F85C1020208840304253
:100C400031D021680968C9062DD5A86094F835000F
:100C500005282068016806D0490347D500680003CD
:100C60001DD4616C1CE021F016010160206841690F
:100C700021F080014161206C08B9A06C20B120688E
:100C8000016821F00801016094F85C103F20884061
:100C9000A86084F8358084F83490216D1FE0E16B02
:100CA00009B120468847606D00282BD0606DC007D1
:100CB00014D0052084F835002068016821F0010176
:100CC00001600098401C0090B84203D8206800687A
:100CD000C007F6D184F8358084F83490E16C00299F
:100CE00010D001B02046BDE8F04308470168C905AF
:100CF000D5D4016821F01001016084F8358084F8B2
:100D00003490CCE7BDE8F8835C0000202DE9F04189
:100D1000044600F09FF906465CB1022084F83500D5
:100D2000002584F834502068016821F00101016039
:100D30000DE00120BDE8F08100F08CF9801B052852
:100D400005D920206065032084F83500F2E720688B
:100D50000068C007F0D12268116820480140D4E93A
:100D600001031843D4E90336334318436369184336
:100D7000A3691843E3691843236A18430843616A67
:100D8000042903D1D4E90B131943084310602068E8
:100D90004069666A20F0070130460E4301270428A7
:100DA0000CD1A06A0643E06A40B12046FFF736FC4A
:100DB00020B14020606584F83570BAE7206846614C
:100DC0002046FFF717FC94F85C203F21914081609A
:100DD000656584F835700020ACE700003F8010F0B6
:100DE0002DE9F0410446866D90F834000025012875
:100DF0000DD0012084F8340094F835700020012FC4
:100E000007D084F8340002252846BDE8F08102208E
:100E1000FBE7022784F8357060652046FFF728FC61
:100E200094F85C103F208840B0602068016841F071
:100E300016010160206C20B12068016841F00801B2
:100E400001602068016841F001010160DCE70000F9
:100E50002DE9F84FDFF8BCA10022012503264FF051
:100E60000F090AF1040BAAF1040E00BF0B6805FA82
:100E700002F42340A34270D10F7907F00307012F3A
:100E800001D0022F16D187684FEA420806FA08FC03
:100E900027EA0C07D1F80CC00CFA08FC4CEA070C46
:100EA000C0F808C04768A7430C79C4F30014944005
:100EB0003C4344600C79E443A4070AD0C4684FEA79
:100EC000420C06FA0CF7BC438F6807FA0CF727436D
:100ED000C7600C7904F00304022C12D1D40800EB93
:100EE000840CDCF820405707FF0E09FA07F824EAC3
:100EF0000804D1F8108008FA07F848EA0408CCF88A
:100F0000208004684FEA420C06FA0CF7BC430F79C4
:100F100007F0030707FA0CF7274307604C6814F43F
:100F2000403F70D03C4C276847F4804727602468D6
:100F300022F0030704F480440094384C07EB040CBF
:100F4000DCF8084897074FEA177809FA08F7BC4316
:100F5000334FB84202D1002724E054E0314FB84269
:100F600001D101271EE0304FB84201D1022719E01C
:100F70002E4FB84201D1032714E02D4FB84201D1C2
:100F800004270FE02B4FB84201D105270AE02A4F72
:100F9000B84201D1062705E0284FB84201D1072702
:100FA00000E0082707FA08F72743CCF80878DAF8B2
:100FB00000405746D1F804C09C435FEACC2C00D5D2
:100FC0001C433C60DBF800405F46D1F804C09C4302
:100FD0005FEA8C2C00D51C433C60DEF8004077466D
:100FE000D1F804C09C435FEA8C3C00D51C433C60B4
:100FF000084F083F3C68D1F804C09C435FEACC3CF2
:1010000000D51C433C60521C102AFFF42FAFBDE8F2
:10101000F88F0000083C0140443802400030014095
:10102000000002400004024000080240000C0240A0
:10103000001002400014024000180240001C024050
:101040000069084000D0012070470AB181617047F3
:101050000904FBE701488068704700006000002039
:1010600090F83C10012912D0012100F83C1F2421E6
:10107000417050F83C1CCA6822F00C0242F0040295
:10108000CA6020214170002101700846704702208B
:10109000704790F83C10012912D0012100F83C1F44
:1010A0002421417050F83C1CCA6822F00C0242F026
:1010B0000802CA6020214170002101700846704773
:1010C0000220704770B5040004D094F83D0000255C
:1010D00010B10DE0012070BD84F83C50204604F0B2
:1010E000C9F8E06E08B91648E06601462046884710
:1010F000242084F83D002068C16821F40051C160BB
:10110000204604F03DF92068016921F49041016115
:101110002068416921F0220141612068416941F064
:10112000080141612068C16841F40051C160256433
:10113000202084F83D0084F83E00002070BD0000AF
:101140001932000870B5040025D094F83D00002540
:1011500020B984F83C50204600F0E2FA242084F8BC
:101160003D002068016821F00101016020680168EC
:1011700041F4004101602068016821F400410160F0
:1011800000F08EFC4D4A6168914201D84C4900E064
:101190004C49884201D2012070BD4B492368B0FB05
:1011A000F1F15E6826F03F060E435E60636893428D
:1011B00006D94FF4967359434FF47A73B1FBF3F1A8
:1011C0002368491C1E6A26F03F0631431962616894
:1011D000914210D84900401EB0FBF1F2521CC2F3FC
:1011E0000B02042A01D2042022E0B0FBF1F0401CE3
:1011F000C0F30B001CE0A268F2B301EBC10303EBE8
:101200000116431EB3FBF6F35B1C43F480431B053E
:1012100049D092B301EBC10202EB0111401EB0FBB9
:10122000F1F0401CC0F30B0040F4804040F400405B
:101230002168CA694CF6FF739A431043C861D4E928
:10124000071001432068026822F0C00211430160C8
:10125000D4E9030101432068826848F2FF339A43CE
:1012600011438160D4E9050108432168CA6822F06E
:10127000FF021043C86001E00EE016E0206801683C
:1012800041F0010101602564202084F83D002563C0
:1012900084F83E50002070BD01EB4106431EB3FBB5
:1012A000F6F35B1CB3E70120C2E701EB4101401EEE
:1012B000B0FBF1F0401CC0F30B00B7E7A0860100C3
:1012C00080841E0000093D0040420F002DE9F84FC8
:1012D0001F4690468A460446DDF82890FFF7BAFE7E
:1012E000054694F83D0020287FD11923012240496A
:1012F0002046009502F072FA002876D194F83C005E
:10130000012872D0012084F83C0020680168C907D8
:1013100003D1016841F0010101602068016821F4F6
:1013200000610160212084F83D00102084F83E0017
:1013300000262664C4F824806785608D20852D48AA
:10134000E0622B464A465146204602F0D1F890B959
:10135000206841698069009036E02A464946204667
:1013600002F0EEFA50B1206C042804D12068016824
:1013700041F4007101600120BDE8F88F606A2168C6
:1013800000780861606A401C6062618D491E618559
:10139000218D491E89B2218522685369DB435B0791
:1013A0000BD451B100781061606A401C6062608D9E
:1013B000401E6085208D401E20852A4649462046D5
:1013C00002F0E6F90028CED1208D0028C5D154F8CE
:1013D0003D0B016841F400710160202004F81E09F2
:1013E000E67766770020C7E7FFE70220C4E7000042
:1013F000020010000000FFFF2DE9FF4F83B09A4666
:10140000DDE9119793460446DDF84080FFF722FEA0
:10141000054694F83D00202870D119230122714916
:101420002046009502F0DAF90028F5D194F83C0046
:10143000012863D0012084F83C0020680168C907B6
:1014400003D1016841F0010101602068016821F4C5
:1014500000610160222084F83D00402084F83E00B5
:1014600000262664C4F82480A4F82A90608D208584
:101470005D48E062CDE9007553465A46204604991E
:1014800002F084F800287CD1208DD0B1012821D031
:101490000228206824D0416980690090208D0328AB
:1014A00069D801282BD0514902283B464FF0000251
:1014B000009559D08846204602F090F9002860D166
:1014C0003CE02068416981690091016841F4007144
:1014D000016077E02068016821F480610160F0E735
:1014E000016821F4806101602068016841F40061B5
:1014F0000160206841698069009063E06FE02A46DE
:101500003946204602F0E9F998BB20680069616A13
:1015100008704EE02068016841F4007101602068A5
:101520000069616A0870606A401C6062218D491E12
:101530002185618D491E6185216838E02068016838
:1015400021F48061016020680069616A0870606A46
:10155000401C6062208D401E2085608D401E60858D
:101560003B46002241460095204602F037F900B97B
:10157000D0E706E0FFE72A463946204602F0ADF9FB
:1015800018B1012007B0BDE8F08F20680069616ADA
:101590000870606A401C6062218D491E2185618D42
:1015A000491E618521684A69D24352070AD40969F4
:1015B0000170606A401C6062208D401E2085608D35
:1015C000401E6085208D00287FF468AF202084F8BD
:1015D0003D0084F83E6084F83C600020D2E70220A1
:1015E000D0E70000020010000000FFFF040001002F
:1015F0002DE9FF4F83B09A46DDE9119793460446E3
:10160000DDF84080FFF726FD054694F83D002028D0
:101610007FD11923012240492046009502F0DEF8CF
:10162000002876D194F83C00012872D0012084F87B
:101630003C0020680168C90703D1016841F001013D
:1016400001602068016821F400610160212084F8B4
:101650003D00402084F83E0000262664C4F8248023
:10166000A4F82A90608D20852C48E062CDE90075B1
:1016700053465A462046049902F006F870B930E005
:101680002A463946204602F05BF958B1206C0428FE
:1016900004D12068016841F400710160012007B0A5
:1016A000BDE8F08F606A216800780861606A401CBC
:1016B0006062218D491E89B22185628D521E62852C
:1016C00022685369DB435B070BD469B10078106172
:1016D000606A401C6062208D401E2085608D401E27
:1016E0006085208D0028CBD12A463946204602F05D
:1016F0004FF80028CAD154F83D0B016841F400713D
:101700000160202004F81E09E67766770020C6E70E
:10171000FFE70220C3E70000020010000000FFFF07
:1017200010B586B0044614216846FEF703FE13493F
:101730002068884220D11248016841F0020101600E
:101740000068694600F002000590C0200090122059
:101750000190012002900320039004200490094886
:10176000FFF776FB06481030016841F40011016074
:10177000006800F40010059006B010BD0054004051
:101780003038024000040240024881680278114467
:1017900081607047600000200B4810B5016841F47B
:1017A00000710160016841F480610160016841F4E9
:1017B00080710160032000F09FF80F2000F006F810
:1017C00000F050F8002010BD003C024030B5054646
:1017D0001F4887B00024016841F4807101600068EF
:1017E00006A900F48070009001A800F039F904986F
:1017F000A8B100F055F940001649174AB0FBF1F1C5
:101800001648491E026040F2E732C0E90324C0E9ED
:101810000114846100F0A2FD040003D015E000F083
:101820003FF9E9E70D4800F033FE04000DD12D200B
:1018300000F034F8102D07D2002229462D2000F0A8
:101840003BF80748056000E0012407B0204630BDA2
:101850004038024040420F00002000406410002049
:10186000640000200C4882B0016841F480410160AE
:10187000006800F4804000900748001F016841F0B4
:10188000805101600068002200F0805000900F211C
:10189000901E02B000F010B844380240002809DB66
:1018A00000F01F02012191404009800000F1E0207A
:1018B000C0F8001170470000F0B40E4B1B680C46D6
:1018C000C3F30223C3F10705042D00D90425191D14
:1018D000072901D2002300E0DB1E012606FA05F1EC
:1018E000491E214099409E40761E16403143F0BC6F
:1018F00003F0ECBE0CED00E0064900F007020868BA
:101900004FF6FF03184040EA0220034A10430860E4
:10191000704700000CED00E00000FA057047000081
:101920002DE9F0470E46050065D0DFF81481D8F8A0
:101930000000F7B200F00700B04207D288F800704C
:10194000D8F8000000F00700B04254D128683D4CA0
:10195000810712D5400703D5206840F4E05020608D
:101960002878000703D5206840F460402060206894
:10197000A96820F0F000084320602878C0072DD027
:10198000304968680839012812D0022813D003288A
:1019900011D00968890700292DDA216821F0030197
:1019A00001432160FFF756FB814641F2883A0EE081
:1019B00009688903EFE709688901ECE7FFF74AFB4B
:1019C000A0EB0901514502D90320BDE8F08720684A
:1019D000696800F00C00B0EB810FEFD1D8F800106F
:1019E000404601F00701B14207D90770006800F0D6
:1019F0000700B04201D00120E7E72878400705D56D
:101A00002068E96820F4E050084320602878000747
:101A100006D52068296920F4604040EAC1002060B2
:101A200000F05EF82168084AC1F30311515CC84018
:101A30000649086006480068FFF7C8FE0020C4E7B2
:101A4000003C02400838024058BC00085C000020FE
:101A50006400002001490120C8647047000047422B
:101A60000F2202600C4A136803F0030343601368FB
:101A700003F0F0038360136803F4E053C36012685B
:101A80004FF4E05303EAD20202610448006800F018
:101A9000070008607047000008380240003C024020
:101AA0000448054900680968044AC1F38221515C71
:101AB000C84070475C0000200838024068BC00083D
:101AC0000448054900680968044AC1F34231515C81
:101AD000C84070475C0000200838024068BC00081D
:101AE000104810B5006810F00C010F4818D00429F8
:101AF00016D0082914D10B4C241F216801F03F0295
:101B0000216821680023C1F38811A1FB0001FEF7C1
:101B1000B9FB2168C1F30141491C4900B0FBF1F058
:101B200010BD0000083802400024F400054810B53C
:101B30000068000605D5FFF7F1FE02498020891CE8
:101B4000087010BD0C3802402DE9F84F04006ED02B
:101B50002078DFF84C93C007A9F104054AD009F1B9
:101B600004000168C1F38101012908D00068C0F3B5
:101B7000810002280AD1D9F80000400206D5286861
:101B8000800337D560680028E1D033E06068B0F5A5
:101B9000803F10D0B0F5A02F286810D020F48030FE
:101BA0002860286820F4802028606068A8B1FFF7CA
:101BB00051FA06460DE0286840F48030F4E740F41E
:101BC00080202860F7E700BFFFF744FA801B6428F5
:101BD00073D828688003F7D50CE0FFF73BFA064678
:101BE00005E000BFFFF736FA801B6428F0D82868AC
:101BF0008003F7D42078DFF8AC8280074FF0000A2A
:101C00003ED5A748001D016811F00C0F08D00068F0
:101C1000C0F3810002280BD1D9F80000400207D49C
:101C20002868800716D5E068012800D112E033E16A
:101C3000E068B8B10120C8F80000FFF70BFA0646CB
:101C400005E000BFFFF706FA801B0228C0D828680D
:101C50008007F7D52868216920F0F80040EAC10024
:101C600028600DE0C8F800A0FFF7F4F9064604E08C
:101C7000FFF7F0F9801B02281FD828688007F7D4E7
:101C80002078000722D5864F87486169703771B187
:101C900001210160FFF7DEF9064604E0FFF7DAF9FB
:101CA000801B022809D838688007F7D50EE0C0F8F5
:101CB00000A0FFF7CFF9064605E082E0FFF7CAF97A
:101CC000801B02287DD838688007F7D42078400729
:101CD00068D5DFF8CCB100270BF13C0BDBF8000036
:101CE000C0000BD4DBF8001041F08051CBF800109D
:101CF000DBF80000012700F0805000906B4E306848
:101D0000C00510D4306840F480703060FFF7A2F94D
:101D1000009005E0FFF79EF90099401A022850D87C
:101D20003068C005F6D55E4EA0686C3601280FD02D
:101D30000528306810D020F001003060306820F0B5
:101D400004003060A068B8B1FFF784F900900FE09C
:101D5000306840F00100F4E740F004003060F7E73D
:101D6000FFF778F90099411A41F28830814266D82C
:101D700030688007F4D50EE0FFF76CF9009007E0BB
:101D8000FFF768F90099411A41F28830814256D82C
:101D900030688007F4D42FB1DBF8001021F08051B7
:101DA000CBF80010A069C8B33D49091D0968C1F30B
:101DB000810102294AD00228504607D0C8F86000A5
:101DC00000E03CE0FFF746F904463BE04746C8F830
:101DD0006000FFF73FF9064605E000BFFFF73AF95C
:101DE000801B02282BD828688001F7D4D4E907018A
:101DF0000843A16A2E4A490802EB0141626A41EA9E
:101E00008211084394F82C1040EA0161C9F80010CF
:101E100001203866FFF71EF9044606E03EE000BFE9
:101E2000FFF718F9001B022809D828688001F7D5A8
:101E300034E000BFFFF70EF9001B022802D903208F
:101E4000BDE8F88F28688001F4D427E00128F7D096
:101E5000D9F80000E26900F4800191421CD1226AA5
:101E600000F03F01914217D147F6C071626A01400C
:101E7000B1EB821F10D1A26A4FF0FF3300F4403162
:101E800003EB5202B1EB024F06D194F82C1000F094
:101E90007060B0EB016F01D00120D1E70020CFE7E7
:101EA0000438024000004742800E47420070004064
:101EB0000000FFFF7047704738B5016804464A6864
:101EC0008868C043430606D5C30704D1D3435B06E5
:101ED00001D4216C64E0830704D4D3431B0601D4EE
:101EE000616C5DE0830603D5430601D5C30551D47B
:101EF000D3439B064ED443060AD494F85130032BA7
:101F000049D0636D43F004036365CB688B6800932D
:101F1000830609D4636D43F0010363658B68009306
:101F20000B6823F040030B60C00506D4606D40F0E1
:101F300008006065206880680090606D002829D0E6
:101F40002068416821F0E0014160012084F85100DF
:101F5000900701D4D00722D02068416821F0030106
:101F60004160124DE06C40B10565E06CFEF7E9FDA3
:101F700018B1606D40F040006065A06C002809D089
:101F80000565A06CFEF7DDFD002803D0606D40F014
:101F90004000606538BDC8688868009038BD216F12
:101FA00001B02046BDE83040084700001148000855
:101FB00070B5040009D0606A002540B125616561F3
:101FC000A56294F8510040B120E0012070BD606826
:101FD000B0F5827FF4D0E561F2E784F850502D48E7
:101FE000A0652D48E0652D4820662D4860662D4887
:101FF000A0662D48E0662D4820672D486067A06FD9
:1020000008B92C48A067014620468847022084F87A
:1020100051002068016821F040010160A0882189F9
:1020200000F4827001F404410843A18901F40061C5
:102030000843217C01F002010843217D01F00101E8
:102040000843218B01F400710843217F01F038011E
:10205000084394F8201001F080010843218D01F419
:102060000051084321680860A069042101EA10407A
:1020700094F8241001F0100108432168486020689A
:10208000C16921F40061C1616565012084F85100D6
:10209000002070BD692200088D2100086D22000813
:1020A0006B2200088F2100086F220008B71E00086D
:1020B000B51E0008B92000082DE9F04387B0064698
:1020C00014216846FEF736F92B493068884250D112
:1020D0002A480025016841F480510160006800F43D
:1020E0008050059025481438016841F001010160D5
:1020F0000068022700F00100059020200124CDE9AE
:102100000007DFF87C90CDE902544FF005086946DE
:10211000CDF810804846FEF79BFE80200090CDE968
:102120000174CDE9034869464846FEF791FE164C16
:10213000144820604FF0C06060604020C4E9020590
:102140000001C4E904054FF44030A561C4E907501B
:1021500020466562FEF7DAFD08B1FEF7B7FAB4640F
:10216000002205212320A663FFF7A6FB2320FFF70B
:1021700095FB07B0BDE8F0830030014044380240D1
:102180000000024058640240A006002070477047DB
:102190002DE9F041044690F850000026012809D0AE
:1021A000012784F8507094F851000025012804D0CC
:1021B00002264EE00220BDE8F08189B182B1032001
:1021C00084F8510065652163A286E286A563656493
:1021D0002564A587E587A068B0F5004F02D00BE025
:1021E000012636E02068016821F040010160206886
:1021F000016841F480410160A16C18480864A16C39
:102200001748C863A16C1748C864A06C0565E38EC5
:102210002268216B0C32A06CFEF7E2FD38B1606DD4
:1022200040F010006065012684F8517011E02068CC
:102230000168490603D4016841F04001016020684B
:10224000416841F0200141602068416841F002018D
:10225000416084F850503046ADE700003B4800082C
:10226000414800081D480008704770477047704794
:1022700070477047704710B590F83C20012A22D073
:10228000012280F83C20CA688C6822F44072224304
:102290004C6822F4806222430C6822F400622243DC
:1022A0000C6922F4805222434C6922F400522243EA
:1022B000C969002322F480420A4301684A6480F815
:1022C0003C30002010BD022010BD000070B590F819
:1022D0003C20012A32D0012480F83C40022280F8C0
:1022E0003D2003685A689D6822F070060A683243F0
:1022F0005A60134B02689A4214D0B2F1804F11D049
:10230000104B9A420ED0104B9A420BD00F4B9A4270
:1023100008D00F4B9A4205D00E4B9A4202D00E4B7A
:102320009A4204D1496825F080031943916080F8EE
:102330003D40002180F83C10084670BD022070BD71
:10234000000001400004004000080040000C004074
:1023500000040140004001400018004010B5040096
:1023600003D094F83D0010B10EE0012010BD002014
:1023700084F83C00204602F0F7FDA06C08B9114833
:10238000A064014620468847022084F83D00211DB4
:10239000206802F0A3FC012084F8460084F83E0087
:1023A00084F83F0084F8400084F8410084F842003B
:1023B00084F8430084F8440084F8450084F83D0024
:1023C000002010BDC923000808B529490268294822
:1023D0008A4207D1016841F001010160006800F004
:1023E00001000BE02349244B091F9A4208D10868D9
:1023F00040F020000860086800F02000009008BD50
:102400001E4B9A4207D1016841F480310160006897
:1024100000F48030F2E71A4B9A4207D1016841F488
:1024200000310160006800F40030E7E7154B9A4284
:1024300007D1016841F480210160006800F4802028
:10244000DCE71148824207D1086840F0400008608C
:10245000086800F04000D1E70C488242CFD10868FC
:1024600040F080000860086800F08000C6E70000C7
:102470000000014044380240001400400040014088
:10248000004401400048014000180040001C00408A
:1024900090F83D10012901D001207047022180F8F9
:1024A0003D100168CA6842F00102CA600068114923
:1024B000884214D0B0F1804F11D00F4988420ED01D
:1024C0000E4988420BD00E49884208D00D498842F7
:1024D00005D00D49884202D00C49884204D1816858
:1024E00001F00701062903D0016841F001010160F4
:1024F0000020704700000140000400400008004038
:10250000000C004000040140004001400018004061
:1025100070B5044690F83C000025012817D001262C
:1025200084F83C60022084F83D002068826822F034
:10253000770222F47F4282600868502838D00DDC90
:1025400020284FD005DC90B3102811D14AE002209A
:1025500070BD302846D040280AD13BE060282FD0FB
:1025600070280DD0B0F5805F03D0B0F5005F12D0B9
:10257000012584F83D60002084F83C00284670BDA9
:10258000CB68D1E90121206802F019FC206881683C
:1025900041F0770109E0CB68D1E90121206802F020
:1025A0000EFC2068816841F480418160E1E719E018
:1025B000CA684968206802F00DFD5021206806E0D5
:1025C000CA684968206802F016FD6021206802F0A0
:1025D00000FCCEE7CA684968206802F0FBFC402195
:1025E0002068F4E7226801461046F0E72DE9F04143
:1025F0000D46040003D094F83D0018B10FE001200F
:10260000BDE8F081002084F83C00204602F0ACFCDC
:10261000206F08B9224820670146204688470220DB
:1026200084F83D002068816844F20702914381608C
:10263000211D206802F052FB216888688B690E6AB0
:102640002A68AF69024340F20330834343EA072319
:10265000A868EF6918434FF6FC439843EB6840EADB
:102660000720034328692F6A000140EA0730184316
:102670006B686D6926F0AA0646EA05152B438A6049
:102680002168886154F8460B0362012004F81F0991
:10269000E0752076E0762077A0750020B0E7000096
:1026A000A5260008F0B587B0044614216846FDF75A
:1026B00041FE4C4923684B4810390224012603256A
:1026C000494A4A4F4FF0000CB3F1804F1ED0DFF85B
:1026D00020E1734544D1026842F0020202600068C2
:1026E00000F002000590086840F0020008600868E9
:1026F000694600F00200059030208DE81110CDE908
:1027000003543846FEF7A4FB07B0F0BD036843F05E
:1027100001030360006800F001000590086840F0C4
:1027200001000860086800F001000590086840F0AA
:10273000020008600868694600F0020005904FF446
:1027400000408DE85100CDE903561046FEF780FBAE
:1027500008208DE85100CDE9035669463846D1E797
:10276000244FBB4222D1026842F00402026000689A
:1027700000F004000590086840F008000860086850
:10278000694600F0080005904FF440508DE81110A4
:10279000CDE903541848FEF75BFB002205211E20FB
:1027A000FFF78AF81E20FFF779F8ADE7134FBB4219
:1027B000AAD1036843F008030360006800F0080032
:1027C0000590086840F0010008600868CDE90054F1
:1027D00000F00100CDE90440CDE9026569461046EC
:1027E00090E7000040380240000002400004024030
:1027F0000004004000080040000C0240000C0040B3
:1028000070B590F83E60044690F83F5090F8423022
:1028100090F84320022021B104290ED0012E1BD1B3
:1028200014E0012E18D1012B16D184F83E0084F853
:10283000420001220021206820E0012D0CD1012A54
:102840000AD184F83F0084F8430014E0012D03D13D
:10285000012B01D1012A01D0012070BD84F83E0076
:1028600084F83F0084F8420084F8430001220021EC
:10287000206802F097FA01220421206802F092FAFF
:102880002068016841F001010160002070BD7047BF
:102890007047704770B50446006801694FF0000545
:1028A000C943890717D4C168C943890713D4E91EEE
:1028B00001610120207720688069800702D0D4F868
:1028C000901005E0D4F8981020468847D4F89C1062
:1028D00020468847257720680169C943490719D4EC
:1028E000C168C943490715D46FF004010161022092
:1028F00020772068806910F4407F02D0D4F89010CF
:1029000005E0D4F8981020468847D4F89C1020465B
:102910008847257720680169C943090718D4C16829
:10292000C943090714D46FF008010161042020771E
:102930002068C069800702D0D4F8901005E0D4F870
:10294000981020468847D4F89C1020468847257761
:1029500020680169C943C90619D4C168C943C906B9
:1029600015D46FF010010161082020772068C0693C
:1029700010F4407F02D0D4F8901005E0D4F89810FD
:1029800020468847D4F89C10204688472577206841
:102990000169C943C90709D1C168C943C90705D13C
:1029A000891E0161D4F8801020468847206801699B
:1029B000C94309060AD4C168C943090606D46FF0A1
:1029C00080010161D4F8B010204688472068016971
:1029D000C94349060AD4C168C943490606D46FF001
:1029E00040010161D4F888102046884720680169B9
:1029F000C94389060CD4C168C943890608D46FF05D
:102A0000200101612046D4F8A810BDE870400847B5
:102A100070BD000070B586B0044614216846FDF70D
:102A200089FC2468284D0022284902232848AC420A
:102A300011D10C6844F010040C600968029201F096
:102A4000100105914FF4D441CDE900130121CDE9E6
:102A5000033169460DE01F4E0325B4420DD10C68C9
:102A600044F010040C60096801F010010591602128
:102A700010E0FEF7EDF906B070BD174E1748B442EE
:102A80000FD10C6844F002040C60096801F00201E7
:102A9000059181150091CDE90132CDE90325694603
:102AA000E7E70F4EB442E6D10C6844F002040C6034
:102AB000096802AC01F0020105917115CDE900131E
:102AC00084E82C006946D4E7000001403038024019
:102AD0000010024000400140004401400004024058
:102AE0000048014070B5044690F83C0000250128DC
:102AF0000FD0012084F83C006AB1042A0FD0082AC4
:102B000011D00C2A13D00125002084F83C0028465F
:102B100070BD022070BD206802F064F9F4E72068FF
:102B200002F090F9F0E7206802F0C2F9ECE72068C3
:102B300002F0F2F9E8E7704710B5040003D094F80A
:102B40003D0010B10EE0012010BD002084F83C00D3
:102B5000204602F009FAA06D08B91148A0650146A7
:102B600020468847022084F83D00211D206802F09D
:102B7000B5F8012084F8460084F83E0084F83F0050
:102B800084F8400084F8410084F8420084F843004F
:102B900084F8440084F8450084F83D00002010BD0E
:102BA000A52B0008704770B5044690F83C0000263D
:102BB0000D4601280FD0012084F83C006AB1042A98
:102BC0001DD0082A2FD00C2A3FD00126002084F8DF
:102BD0003C00304670BD022070BD206802F002F952
:102BE0002068816941F0080181612068816921F0D4
:102BF00004018161206881692A69114311E020681C
:102C000002F020F92068816941F400618161206847
:102C1000816921F480618161206881692A6941EAC2
:102C200002218161D2E7206802F042F92068C1697F
:102C300041F00801C1612068C16921F00401C1614E
:102C40002068C1692A69114311E0206802F064F923
:102C50002068C16941F40061C1612068C16921F443
:102C60008061C1612068C1692A6941EA0221C161AC
:102C7000ACE7000010B5040003D094F83D0010B19B
:102C80000EE0012010BD002084F83C00204602F038
:102C90006BF9206E08B91148206601462046884726
:102CA000022084F83D00211D206802F017F8012061
:102CB00084F8460084F83E0084F83F0084F8400021
:102CC00084F8410084F8420084F8430084F844000A
:102CD00084F8450084F83D00002010BDE12C000878
:102CE000704770477047000010B50446022249B192
:102CF00004290ED0082913D094F84100012816D0D9
:102D0000012010BD94F83E000128F9D184F83E203E
:102D10000FE094F83F000128F2D184F83F2008E04A
:102D200094F840000128EBD184F8402001E084F8B9
:102D300041200122206802F035F816492068164A21
:102D4000884201D0904203D1436C43F40043436472
:102D50002068884213D0B0F1804F10D00F498842CC
:102D60000DD00F4988420AD00E49884207D09042C0
:102D700005D00D49884202D00C49884204D18168AF
:102D800001F00701062903D0016841F0010101604B
:102D9000002010BD0000014000040140000400407C
:102DA00000080040000C00400040014000180040B6
:102DB00030B504460D460068002201F0F3FF194BC0
:102DC00041F2111120688A10984202D0164B9842A5
:102DD00009D1036A0B4206D1036A134203D1436C43
:102DE00023F4004343642068036A0B4206D1016A5E
:102DF000114203D1016821F00101016001203DB1C0
:102E0000042D08D0082D09D084F84100002030BDE1
:102E100084F83E00FAE784F83F00F7E784F84000C2
:102E2000F4E700000000014000040140006803498D
:102E3000884201D1FEF7A8BC704700000020004086
:102E400070477047704738B5044690F83E00202818
:102E500022D181B17AB194F83C0001281CD0012024
:102E600084F83C002063204602F010FB002803D1C8
:102E7000216B012901D0012038BD21680A68496809
:102E8000009121680C3151E8002F42F0100241E816
:102E90000023002BF5D138BD022038BD70477047A4
:102EA00070B5044620680C3050E8001F21F4907182
:102EB00040E80012002AF5D12068143050E8001FC5
:102EC00021F0010140E80012002AF5D1206B012811
:102ED00009D120680C3050E8001F21F0100140E8B3
:102EE0000012002AF5D1206840694FF00005400625
:102EF00015D52068143050E8001F21F0400140E84B
:102F00000012002AF5D1A06B48B10565A06BFDF752
:102F1000CFFD20B1A06BFDF726FE202806D0E58569
:102F2000202084F83E002563002070BD102020641E
:102F3000032070BD7047704770470000F8B5016806
:102F400004460868CA684B6910F00F0F4FF000057F
:102F500056D003F0010602F49077374361D0C107E1
:102F600005D0D10503D5216C41F001012164410751
:102F700005D5D90703D0216C41F0020121648107F6
:102F800005D5D90703D0216C41F004012164010764
:102F900007D502F02001314303D0216C41F0080134
:102FA0002164216C00293BD0800604D5900602D50F
:102FB000204602F085F920684069216CC0F380103A
:102FC000090700D440B3204602F01EF9206840698A
:102FD00040061ED52068143050E8001F21F0400143
:102FE00040E80012002AF5D1A06B90B16C49016550
:102FF000A06BFDF7A6FD002812D0A06B016DCBE001
:1030000083060ED593060CD52046BDE8F84002F0A5
:1030100057B92046616DBFE0616D20468847256441
:10302000F8BD266B2023012E7BD1C60679D5D606A6
:1030300077D50868486800904869400640D5A16B7C
:10304000086840680004000CEAD0A28D8242E7D9EB
:10305000E085C869B0F5807F2DD020680C3050E83D
:10306000001F21F4807140E80012002AF5D1206889
:10307000143050E8001F21F0010140E80012002A3E
:10308000F5D12068143050E8001F21F0400140E8DD
:103090000012002AF5D184F83E30256320680C30F8
:1030A00050E8001F21F0100140E80012002AF5D17D
:1030B000A06BFDF7FDFCA08DE18D401A81B229E0E7
:1030C000A08DE18D401A81B2E08D0028A8D00029A2
:1030D000A6D020680C3050E8002F22F4907240E80F
:1030E0000026002EF5D12068143050E8002F22F081
:1030F000010240E80026002EF5D184F83E30256319
:1031000020680C3050E8002F22F0100240E8002325
:10311000002BF5D1A26E01B02046BDE8F04010476B
:10312000FFE705062CD515062AD594F83D00212881
:103130007FF476AFA068B0F5805F01D12069B0B1AF
:10314000206A411C2162216800784860E08C401EA2
:103150000004000CE084EBD12068C16821F08001FC
:10316000C1602068C16841F04001C160F8BD206ABB
:103170000088C0F308004860206A801C2062E5E7F0
:103180004006F3D55006F1D5CA68204622F0400229
:10319000CA6084F83D30A16C01B0BDE8F04008473A
:1031A000DD50000870B5040004D094F83D000025FF
:1031B00010B10DE0012070BD84F83C50204602F0B3
:1031C00059F8E06E08B91348E06601462046884782
:1031D000242084F83D002068C16821F40051C160BA
:1031E000204602F0CDF82068016921F49041016188
:1031F0002068416921F02A0141612068C16841F4D9
:103200000051C1602564202084F83D0084F83E0010
:10321000002070BD193200082DE9F04387B0064642
:1032200014216846FDF786F8454B3168454803226E
:103230000024994225D1434910310B6843F480138F
:103240000B60096801F480110591016841F00401E7
:1032500001600068694600F0040005904FF480505A
:1032600000901220CDE901040820CDE90320364862
:10327000FDF7EEFD002205213520FEF71DFB352070
:1032800059E0324B994258D12E4914310B6843F022
:1032900010030B60096801F010010591016841F00D
:1032A000010101600068694600F0010005904FF4DB
:1032B000C06000900220CDE901040720CDE9032081
:1032C0002348FDF7C5FD244D22484FF000672860D4
:1032D000C5E901744FF48068C5E903486C614FF497
:1032E0000039AC61C5E9074928466C62FDF70EFD5F
:1032F00008B1FDF7EBF9B563AE63174D15486035BE
:103300007830E5E802074020A5E81101124845F8A9
:1033100014496030AC61C5E907496C62FDF7F6FC01
:1033200008B1FDF7D3F97563002205212520AE63AE
:10333000FEF7C2FA2520FEF7B1FA07B0BDE8F08328
:1033400000500040303802400008024000100140A8
:103350000000024040640240A40F002010B500238A
:1033600072B190F83C40012C10D0012480F83C4010
:1033700090F83D40202C0BD090F83D401CB326E047
:10338000016C41F020010164012010BD022010BD3C
:103390000D291CD2DFE801F007090B0D0F111315E1
:1033A0001B1B1B252700426416E0826414E0C264E4
:1033B00012E0026510E042650EE082650CE0C26535
:1033C0000AE0026608E00B290BD00C290BD0016C37
:1033D00041F0200101640123002180F83C101846CF
:1033E00010BDC266F8E70267F6E70022A1B190F8C7
:1033F0003C30012B16D0012380F83C3090F83D3052
:10340000202B11D0016C41F0200101640122002128
:1034100080F83C1010467047016C41F020010164B7
:1034200001207047022070478166F0E770477047BF
:1034300070B5044690F83D00202836D191B38AB388
:1034400094F83C00012830D0012084F83C0021622F
:10345000A284E28400252564212084F83D00636B6A
:103460001348D863636B13481864636B1248D864BD
:10347000606B134605652668606B321DFDF7B0FC76
:1034800021686FF04000086084F83C5020681430D8
:1034900050E8001F41F0800140E80012002AF5D1F9
:1034A000002070BDFFE70120FBE70220F9E70000E4
:1034B000C551000803520008E950000870477047E2
:1034C000FEE701684A69D24352050FD46FF4806267
:1034D0004A61002140F8301F202242738173026943
:1034E00042F004020261017301207047002070471E
:1034F000F8B50446C06A1E460D461746082807D090
:10350000012805D010F5803F02D0206B122804D18D
:103510002068016841F480710160134600224FF079
:1035200001112046009600F059F940B1206800686A
:10353000C00502D54FF4007020640320F8BD206957
:10354000B0F5804F0ED00620216800EAD51040F07B
:10355000F000086133463A460B49204600F072F904
:1035600078B902E005F0FE0000E0E8B221680861E9
:10357000054933463A46891F204600F063F9002882
:10358000DCD00120F8BD0000080001002DE9F84F53
:103590000446006889460B9D01689846174641F429
:1035A000806101602068016841F4807101600095CC
:1035B0004FF0011B0022594620460A9B00F00EF9ED
:1035C0004FF4007A40B120680068C00501D5C4F806
:1035D00040A00320BDE8F88F216809F0FE000861D3
:1035E0002B46284920460A9A00F02CF9F0BB2068A7
:1035F0004169806900902A4620460A9900F0A0F9A6
:1036000040B1206C04283AD12068016841F400716F
:10361000016034E0FEB2B8F1010F09D02168380A28
:1036200008612A4620460A9900F08AF90028E8D164
:10363000206806612A4620460A9900F081F9002890
:10364000DFD12068016841F480710160009500229B
:10365000594620460A9B00F0C1F80028B3D12168E2
:1036600009F0FF0040F00100086100E007E02B4690
:10367000044920460A9A00F0E5F80028AAD0012063
:10368000A8E70000020001002DE9F84304460068A5
:103690000D46DDE9089701689846164641F48071A9
:1036A00001604B4600224FF001112046009700F0C8
:1036B00095F848B120680068C00502D54FF4007045
:1036C00020640320BDE8F883216805F0FE0008614E
:1036D0003B464A461549204600F0B4F888B92068B0
:1036E0004169806900903A464946204600F028F931
:1036F00048B1206C042804D12068016841F40071AD
:1037000001600120DEE7F5B2B8F1010F09D02168B0
:10371000300A08613A464946204600F011F900286F
:10372000E7D1206805610020CCE70000020001001D
:1037300000B585B014216846FCF7FCFD4FF400602D
:103740000090002001900120029003200390694620
:103750000248FDF77DFB05B000BD000000040240FB
:1037600000B585B014216846FCF7E4FD4FF4006015
:1037700000900120019000200290032003906946F0
:103780000248FDF765FB05B000BD000000040240E3
:1037900070B516460D4604460DE02046FFF791FE33
:1037A00008B1012070BD681C05D0FDF753FC801BDB
:1037B000A84207D835B120684069C0434007ECD41F
:1037C000002070BD002044F8300F20216173A073E9
:1037D000216941F0200121612073E2E72DE9F047E2
:1037E0001E4690460D460446C1F30747DDF820907B
:1037F00008E0701C06D0FDF72DFCA0EB0900B042DC
:103800000FD876B12068012F18D0806925EA000012
:103810000004000C14D000214145EAD00020BDE88E
:10382000F087002044F8300F20216173A0732169D4
:1038300041F02001216120730120F0E74069E5E7B4
:103840000121E9E72DE9F0479A4691460E460446E4
:1038500000254FF02008C1F3074725E020684069A4
:10386000C043400514D42068016841F40071016030
:1038700021686FF480604861256384F83D8084F896
:103880003E50206C40F00400206484F83C501FE05F
:10389000B9F1FF3F08D0FDF7DDFBA0EB0A01494578
:1038A0000CD8B9F1000F09D02068012F13D080691E
:1038B00026EA00000004000C0BD0CFE744F8305F8C
:1038C00084F80D80A573206940F0200020612573E5
:1038D0000120BDE8F0874069EAE72DE9F0410025C5
:1038E00090460E460446202717E04069C043C006B4
:1038F0000CD454F8301B6FF01000486144F8105994
:103900006777A577206A2062257717E0FDF7A2FB8D
:10391000A0EB0800B04208D83EB120684169C94315
:103920004906E2D40020BDE8F08144F8305F6773B7
:10393000A573206940F02000206125730120F2E783
:1039400070B516460D4604460DE02046FFF7B9FD5A
:1039500008B1012070BD681C05D0FDF77BFB801B02
:10396000A84207D835B120684069C0430006ECD4AE
:10397000002070BD002044F8300F20216173A07337
:10398000216941F0200121612073E2E72DE9F04136
:103990001C4615460F46064600F002F9304600F078
:1039A000CDF800F047F970B9384600F0C7F800F0DC
:1039B00041F940B900F0F4F846F0010000F0BEF81B
:1039C00000F038F968B10120BDE8F081012C01D97F
:1039D000012000E0002000F07BF8641E05F8010BD8
:1039E000E4B2002CF2D100F0FFF80020ECE72DE962
:1039F000F0411D4616460F46044600F0D1F8204619
:103A000000F09CF800F016F928B9384600F096F856
:103A100000F010F910B10120BDE8F081002409E0A8
:103A2000305D00F08BF800F005F910B100F0DCF823
:103A3000F1E7641CAC42F3DB00F0D6F80020EBE7C2
:103A400070B5104D4FF48064002221462846FDF7E2
:103A5000FCFAFFF785FE002261002846FDF7F5FA23
:103A60000220FCF71AFE012221462846FDF7EDFA56
:103A70000220FCF712FE21462846BDE870400022D5
:103A8000FDF7E3BA0004024070B5104D4FF48064B6
:103A9000002221462846FDF7D8FAFFF761FE0122F1
:103AA000D1022846FDF7D1FA0220FCF7F6FD0122EB
:103AB00021462846FDF7C9FA0220FCF7EEFD214613
:103AC0002846BDE870400022FDF7BFBA000402405E
:103AD0002DE9F047002580462C46FFF729FE164FBA
:103AE0004FF480664FF40069002231463846FDF7F6
:103AF000ACFA0220FCF7D1FD012231463846FDF731
:103B0000A4FA6006040E49463846FDF799FA08B152
:103B1000641CE4B20120FCF7C0FD6D1CEDB2082D61
:103B2000E2D3B8F1000F04D0FFF78AFF2046BDE8CA
:103B3000F087FFF7A9FFF9E7000402402DE9F04103
:103B400005460024FFF70CFE144E4FF48067002258
:103B500039463046FDF779FA4FF40068EA094146E4
:103B60003046FDF772FA6806050E0220FCF795FD57
:103B7000012239463046FDF768FA0220FCF78DFD38
:103B8000002239463046FDF760FA0220FCF785FD39
:103B9000641CE4B2082CE1D3BDE8F08100040240CB
:103BA00070B5FFF7DDFD01220E4DD40221462846F7
:103BB000FDF74BFA0122960231462846FDF745FAF9
:103BC0000420FCF76AFD002221462846FDF73DFA55
:103BD0000420FCF762FD31462846BDE87040002213
:103BE000FDF733BA0004024070B5FFF7B9FD104D80
:103BF0004FF48064002221462846FDF726FA66002D
:103C0000002231462846FDF720FA0420FCF745FD46
:103C1000012221462846FDF718FA0122314628469E
:103C2000FDF713FABDE870400420FCF736BD000034
:103C3000000402402DE9F0410024FFF779FD012244
:103C4000144DD60231462846FDF7FFF90120FCF756
:103C500024FD0122970239462846FDF7F6F9012096
:103C6000FCF71BFD08E0641CE4B2FA2C04D9FFF752
:103C7000BBFF0120BDE8F08131462846FDF7E0F9A1
:103C80000028F0D1002239462846FDF7DEF9002051
:103C9000F0E70000000402407FB500211B480091BE
:103CA00001910291184A0391026001244FF44032BD
:103CB0000461C0E90121017680F82010144AC0E9AE
:103CC0000A210225C561C16080F830104161FCF70E
:103CD000A8FD08B1FCF7FAFC1120CDE9000407208B
:103CE000029069460948FCF7F3FC08B1FCF7EEFCCA
:103CF0000820CDE9000569460448FCF7E9FC0028E6
:103D000001D0FCF7E3FC7FBD00200140240500202A
:103D10000100000F074910B5054808600846FCF788
:103D2000A1FE002803D0BDE81040FCF7CFBC10BDB9
:103D30000030024050000020114808B5016841F4ED
:103D4000800101600068002200F4800000900521DD
:103D50003A20FDF7B1FD3A20FDF7A0FD0022052134
:103D60003B20FDF7A9FD3B20FDF798FD0022052132
:103D70004620FDF7A1FDBDE808404620FDF78EBDB9
:103D80003038024010B5474803F065FB464C454AC1
:103D90000121A0631032084603F0E0FB414A0121F3
:103DA000E0632032084603F0D9FB3E4A012120643B
:103DB0003032084603F0D2FB3A4A012160644032B7
:103DC000084603F0CBFB374A0121A0645032084675
:103DD00003F0C4FB334BE064403B00220121334835
:103DE00003F07AFC2F4BA062303B002201213048C7
:103DF00003F072FC2B4BE062203B002201212D4896
:103E000003F06AFC274B2063103B002201212A4863
:103E100003F062FC234A6063703A0421402003F0FF
:103E200091FA204A2062583A0121202003F08AFAB0
:103E30006062224A0021224803F008FC1F4A6060A9
:103E4000243200211F4803F001FC1C4AA0604832C4
:103E500000211D4803F0FAFB184AE0606C32002193
:103E60001A4803F0F3FB154A2061903200211848EC
:103E700003F0ECFB114A6061B4320021154803F0F5
:103E8000E5FB084AA061943A0021134803F0DEFBE9
:103E90000A4AE061243A0021104803F0D7FB206071
:103EA00010BD0000F8BB0008000000207D5F000886
:103EB000B168000825610008995C00088CBA000808
:103EC000B549000829670008997F0008BD7C0008F3
:103ED0001D6700086D5B0008C9710008CDA50008CA
:103EE0002DE9F04F87B014216846FCF723FA6B48A0
:103EF0000024016841F010010160016801F0100127
:103F00000591016841F004010160016801F00401BC
:103F10000591016841F080010160016801F08001B4
:103F20000591016841F001010160016801F00101A2
:103F30000591016841F002010160016801F0020190
:103F40000591016841F0080101600068002200F05D
:103F5000080005904FF4CA515148FDF776F8DFF894
:103F600044A14FF44067002239465046FDF76DF8F2
:103F7000012279104C48FDF768F800224FF40061E7
:103F80004948FDF762F8DFF824B14FF48078012248
:103F900041465846FDF759F84FF40079002249464A
:103FA0005846FDF752F849F29C500325CDE900052B
:103FB000694602943E48FCF74BFF4EF6FF40CDE9C0
:103FC0000005694602945846FCF742FF1C20CDE9E3
:103FD0000005694602943248FCF73AFF4FF4A0709E
:103FE0000126CDE9000669462D48CDE90245FCF7DA
:103FF0002FFF4EF20600CDE90005694602945046B7
:10400000FCF726FF0097CDE901646946504603940A
:10401000FCF71EFF300300904FF488100227CDE913
:10402000010769465046FCF713FF4CF2FF10CDE93B
:104030000005694602941C48FCF70AFF4FF46060D3
:10404000CDE90006CDE9024669461748FCF700FFB6
:10405000CDF80080CDE90164694658460394FCF729
:10406000F7FECDF800900397CDE901646946584604
:10407000FCF7EEFEE802CDE90006CDE9024769460D
:104080000748FCF7E5FECDE900546946084802946C
:10409000FCF7DEFE07B0BDE8F08F000030380240CC
:1040A0000000024000040240000C024000080240F0
:1040B000001002400D4810B50B4901600C494160E9
:1040C00000214FF480428160C0E9031241618161A7
:1040D000C1610162FDF736F8002803D0BDE8104049
:1040E000FCF7F4BA10BD000000540040CC050020DD
:1040F000A086010010B5002205211C20FDF7DCFB85
:104100001C20FDF7CBFB002205211D20FDF7D4FB71
:104110001D20FDF7C3FB002205212820FDF7CCFB65
:104120002820FDF7BBFB002205212B20FDF7C4FB57
:104130002B20FDF7B3FB002205212C20FDF7BCFB53
:104140002C20FDF7ABFB002205213220FDF7B4FB4C
:104150003220FDF7A3FB002205213720FDF7ACFB41
:10416000BDE810403720FDF799BB0000104810B59E
:104170000E4901604FF48271416000218160C1608D
:104180004FF400720161C0E905121822C0E907214D
:10419000416281620A21C162FDF70AFF002803D053
:1041A000BDE81040FCF792BA10BD0000003001409D
:1041B0002006002010B588B01C216846FCF7BAF82C
:1041C000164815490024016040F24731C0E9011446
:1041D00040F2E731C0E9031480218161FEF7BEF8A7
:1041E00008B1FCF773FA0D48FEF744FD08B1FCF77F
:1041F0006DFA6020CDE90004042004900022694695
:1042000002940648FEF7CFFC08B1FCF75FFA0348BA
:10421000FEF700FC08B010BD00440140EC0B00208C
:1042200010B588B01C216846FCF784F8164815497B
:104230000024016040F24731C0E9011440F2E73147
:10424000C0E9031480218161FEF788F808B1FCF70A
:104250003DFA0D48FEF70EFD08B1FCF737FA602075
:10426000CDE9000404200490002269460294064827
:10427000FEF799FC08B1FCF729FA0348FEF7CAFBE0
:1042800008B010BD00480140A00C002030B58BB034
:1042900000250795089509951C2168460A95FCF7A5
:1042A00049F81C4C1A48206040F24730C4E9010527
:1042B0006320C4E903058020A0612046FEF74EF884
:1042C00008B1FCF703FA4FF48050079007A9114892
:1042D000FEF71EF908B1FCF7F9F90E48FEF72CFCC1
:1042E00008B1FCF7F3F93220CDE900500295002225
:1042F000694608480495FEF7F5FB08B1FCF7E6F9B6
:104300002068816941F0080181610BB030BD000077
:1043100000180040540D002010B588B01C216846DC
:10432000FCF708F813481249002401605321C0E942
:10433000011441F28731C0E903148461FEF70EF8DD
:1043400008B1FCF7C3F90B48FEF7F6FB08B1FCF720
:10435000BDF9009401940294002269460548049432
:10436000FEF7C0FB002801D0FCF7B0F908B010BD83
:10437000001C0040080E002010B596B000240F94D9
:1043800010941194129413941C2168461494FBF712
:10439000D1FF202107A8FBF7CDFF36483449016043
:1043A00040F24731C0E9011440F2E731C0E903149B
:1043B0008021C0E90541FDF7D1FF08B1FCF786F97E
:1043C0004FF480500F900FA92A48FEF7A1F808B1CA
:1043D000FCF77CF92748FEF74DFC08B1FCF776F9AD
:1043E000139413A923481494FDF770FF08B1FCF748
:1043F0006DF96020CDE9000404200294CDE903406A
:104400000594002269461B480694FEF7CCFB08B1D0
:10441000FCF75CF9042269461648FEF7C4FB08B1B4
:10442000FCF754F9082269461248FEF7BCFB08B1B4
:10443000FCF74CF90C2269460E48FEF7B4FB08B1B4
:10444000FCF744F90794089409944FF400500A9437
:10445000CDE90B4007A907480E94FDF70CFF08B102
:10446000FCF734F90348FEF7D5FA16B010BD00008A
:10447000000001400007002010B58CB024216846E0
:10448000FBF758FF0024164809944FF080410A9426
:10449000C0E900144EF66021C0E9024180210461A8
:1044A00081610320CDE900040120CDE902040494D8
:1044B000CDE905400794694609480894FEF796F847
:1044C00008B1FCF703F9099409A905480A94FDF716
:1044D000FDFE002801D0FCF7F9F80CB010BD00007B
:1044E000B407002010B58CB024216846FBF722FFEA
:1044F00000241648099414490A94C0E900144EF6A1
:104500006021C0E902418021046181610320CDE97D
:1045100000040120CDE902040494CDE9054007948C
:1045200069460A480894FEF761F808B1FCF7CEF82E
:10453000099409A905480A94FDF7C8FE002801D08E
:10454000FCF7C4F80CB010BD00040040680800205F
:1045500010B58CB024216846FBF7ECFE0024164809
:10456000099414490A94C0E900144EF66021C0E988
:1045700002418021046181610320CDE90004012012
:10458000CDE902040494CDE90540079469460A4840
:104590000894FEF72BF808B1FCF798F8099409A9DC
:1045A00005480A94FDF792FE002801D0FCF78EF82A
:1045B0000CB010BD000800401C09002010B58CB0E4
:1045C00024216846FBF7B6FE0024164809941449D6
:1045D0000A94C0E900144EF66021C0E9024180212E
:1045E000046181610320CDE900040120CDE90204CA
:1045F0000494CDE90540079469460A480894FDF7FC
:10460000F5FF08B1FCF762F8099409A905480A9476
:10461000FDF75CFE002801D0FCF758F80CB010BD87
:10462000000C0040D00900201CB500240F48009465
:104630000D49019401605321C0E9011442F20F7148
:10464000C16080218161FDF789FE08B1FCF73EF869
:104650000094694605480194FDF738FE002801D012
:10466000FCF734F81CBD000000140040840A002050
:1046700010B58CB000240794089409941C21684656
:104680000A94FBF757FE1F481D49016040F247316D
:10469000C0E9011440F2E731C0E9031480218161CF
:1046A000FDF75CFE08B1FCF711F84FF4805007905D
:1046B00007A91448FDF72CFF08B1FCF707F81148CB
:1046C000FEF7D8FA08B1FCF701F86020CDE9000444
:1046D000042004900022694602940A48FEF763FA17
:1046E00008B1FBF7F3FF042269460648FEF75BFAC0
:1046F00008B1FBF7EBFF0348FEF78CF90CB010BDD7
:1047000000400140380B00200C4810B50A490160F8
:104710004FF4E1314160002181600C22C160C0E9A9
:1047200004128161C161FCF7CDFC002803D0BDE813
:104730001040FBF7CBBF10BD00500040BC0E002066
:104740000C4810B50A4901604FF4E1314160002185
:1047500081600C22C160C0E904128161C161FEF771
:1047600021FD002803D0BDE81040FBF7AFBF10BD0E
:1047700000100140300F0020FEE7FDF7D7F9FEE7FB
:1047800000F0F2BE70B5074B0646144618780D4689
:1047900008B900F0E9FE224629463046BDE87040DF
:1047A00000F002B8ECC9002070B50E46144900EBC9
:1047B000400001EBC0051446E86A183520B1012815
:1047C0000FD0022805D113E0284600F001FFA042D7
:1047D00001D2002411E022463146284600F030FF85
:1047E0000BE0284600F0F4FEA042F4D20446F2E7C3
:1047F0003146284600F0F7FE0446204670BD000012
:10480000ECC900200148FDF757BB0000200600203E
:10481000806B0021C187C186016F0847806B0168EA
:104820004A6822F003024A60416D41F0100141657F
:10483000012180F85110016F0847806B416E0847D5
:1048400038B50546846BFCF705FC0246286800680D
:10485000C00525D42068416821F02001416020680E
:10486000416821F0020141606421204600F01AF8FD
:1048700018B1606D40F020006065A068002118B993
:104880002068C26880680090E186012084F85100A9
:10489000606D28B1216F01B02046BDE83040084767
:1048A000A16DF8E738B504461248134B0068B0FB19
:1048B000F3F04FF47A73584300906068B0F5827F4C
:1048C0000DD10B46009200228021204600F016F800
:1048D00070B1606D40F020006065032038BD009825
:1048E00030B1401E009020688068C0430006F6D5B5
:1048F000002038BD5C00002000366E012DE9F84331
:104900001E46914688460446089DFCF7A3FB401BC3
:10491000351AFCF79FFB074625480068C0F3CB30EB
:10492000684338E0701C37D0FCF794FBC01BA842EA
:1049300003D215B1009860B32CE02068416821F0E3
:10494000E00141606068B0F5827F0BD1A068B0F5EE
:10495000004F02D0B0F5806F04D12068016821F0CB
:1049600040010160A06AB0F5005F09D120680168CC
:1049700021F4005101602068016841F40051016098
:10498000012084F85100002084F850000320BDE885
:10499000F8830025401E00902068816838EA0100F5
:1049A00004D000214945BDD10020F0E70121F9E7FD
:1049B0005C000020012002F057FCFBE710B54FF02F
:1049C000E020006906F024FE012803D0BDE8104075
:1049D00006F040B910BD000030B593B030216846F4
:1049E000FBF7A8FC14210CA8FBF7A4FC1E4800252B
:1049F000016841F080510160006800F08050119022
:104A00001A48016841F4804101600068022400F402
:104A10008040119001200090000401908001CDE9B8
:104A2000064008200890A820CDE9090407200B9033
:104A30006846FDF789F808B172B6FEE70CA90F20A9
:104A400081E831004FF4A0500F904FF48050109047
:104A500005210CA8FCF764FF08B172B6FEE7FCF76D
:104A6000F9FF13B030BD0000403802400070004034
:104A70000548016841F47001016003494FF000608E
:104A8000803908607047000088ED00E00C49086834
:104A90000269D243D20712D1921E026108680068EF
:104AA000C10608484068D0E9021203D5491E42F108
:104AB000FF3202E0491C42F10002C0E902127047D5
:104AC000B407002048D300200C4908680269D2438B
:104AD000D20712D1921E026108680068C106084818
:104AE000C068D0E9021203D5491E42F1FF3202E04C
:104AF000491C42F10002C0E9021270476808002018
:104B000048D300200C4908680269D243D20712D169
:104B1000921E026108680068C10608488068D0E9F2
:104B2000021203D5491E42F1FF3202E0491C42F154
:104B30000002C0E9021270471C09002048D300207F
:104B40000C4908680269D243D20712D1921E026151
:104B500008680068C10608480068D0E9021203D559
:104B6000491E42F1FF3202E0491C42F10002C0E955
:104B700002127047D009002048D3002070B51F48AA
:104B80002DED028B00680169C943C90733D1891E25
:104B900001611B480068426A1A4C9FED1B8A002382
:104BA0002068B0EE480A01F019FD18480068426A12
:104BB0000023B0EE480A606801F010FD1448006858
:104BC000426A0023B0EE480AA06801F007FD1148D0
:104BD0000068426A0023B0EE480AE06801F0FEFC7B
:104BE0005FF00005B0EE480A54F8250001F07AFCA9
:104BF0006D1C042DF6DBBDEC028B70BD840A002019
:104C0000D009002048D300200AD7233CB407002055
:104C10001C0900206808002070B50F4C2168086945
:104C20000E4DC043C00706D1801E086101224021FD
:104C30002846FCF70AFA21680869C043800709D4AE
:104C40006FF0020008612846BDE870400022402154
:104C5000FCF7FBB970BD0000540D002000000240BD
:104C60000148FDF717BE00006410002070B5184E13
:104C700030680169174DC943174C89070DD46FF08F
:104C800002010161206855F82000416A0020884730
:104C9000206803281AD0401C206030680169C9438D
:104CA000C90712D1891E0161206855F82000416AA8
:104CB00001208847206855F8200003F06DFF206828
:104CC000316855F820000069486370BD0020E3E7B3
:104CD000080E0020B8D6002058000020F0B5026869
:104CE000254C264D264E274F274B4FF0804CA04297
:104CF00009D0604507D0A84205D0B04203D0B842E1
:104D000001D0984204D122F0700E4A6842EA0E02A5
:104D1000A0421BD0604519D0A84217D0B04215D090
:104D2000B84213D0984211D0184DA8420ED0184D59
:104D3000A8420BD0174DA84208D0174DA84205D065
:104D4000164DA84202D0164DA84203D122F4407558
:104D5000CA682A434D6922F080022A4302608A68A9
:104D6000C2620A688262A04201D0984201D10969F8
:104D7000016301214161F0BD0000014000040040D9
:104D800000080040000C00400004014000400140C9
:104D9000004401400048014000180040001C004051
:104DA0000020004010B501F01F030121046A994062
:104DB0008C430462016A9A401143016210BD10B530
:104DC000846842EA032224F47F440A432243826037
:104DD00010BD826822F070020A4342F00701816030
:104DE00070470000F0B5026A22F001020262036A15
:104DF00042688469124E24F073050C682C4323F03A
:104E000002058B682B430D4DA84201D0B04205D15D
:104E100023F00807CB683B4323F00403A84201D0EA
:104E2000B04205D14D6922F4407215438A692A4384
:104E300042608461496841630362F0BD0000014043
:104E400000040140F0B5026A22F010020262026A18
:104E5000436884690D6824F4E64444EA05248D68B7
:104E600022F0200242EA05120F4D104EA84201D056
:104E7000B04206D1CF6822F0800242EA071222F047
:104E80004002A84201D0B04207D14D6923F44063EB
:104E900043EA85038D6943EA850343608461496879
:104EA00081630262F0BD0000000001400004014087
:104EB000F0B5026A22F480720262026A4368C46931
:104EC00022F4007224F073050C68124E2C438D6896
:104ED00042EA05220E4DA84201D0B04206D1CF6869
:104EE00022F4006242EA072222F48062A84201D042
:104EF000B04207D14D6923F4405343EA05138D694D
:104F000043EA05134360C4614968C1630262F0BDAE
:104F1000000001400004014030B5026A22F48052D2
:104F20000262046A4268C3690D6823F4E64343EAF7
:104F300005238D6824F4005444EA0534084DA84242
:104F400002D0084DA84204D14D6922F4804242EAC1
:104F500085124260C36149680164046230BD00008B
:104F600000000140000401400D4940F8801F0D4938
:104F700041600D4981600D49C1600D4901610D49D4
:104F800041610D4981610D49C1610D4901620D49C0
:104F900041620D4981620D49C1620D49016370474B
:104FA0002D2E0008412E0008432E0008452E000833
:104FB0009128000893280008372B0008E32C0008EC
:104FC000E52C00088F2800087322000875220008CD
:104FD0007122000810B5036A046A24F00104046217
:104FE000846924F0F00444EA021423F00A020A431C
:104FF0008461026210BD10B5036A23F010030362DE
:105000008369046A23F4704343EA023224F0A00364
:1050100043EA01118261016210BD10B503F08AFDFF
:10502000002805D0D0E90021BDE81040084610470F
:1050300010BD000070B5264C20680168254DC9439D
:1050400089060CD46FF02001016020684068C1B26D
:10505000214804F0B3F810B9286802F0CBFA2168AF
:105060000868C04342061C4812D46FF040020A6030
:1050700090F8280018B1286802F0BCFA02E0144841
:10508000FBF7EEFF2068C16821F04001C16070BDF0
:105090000A68D243120615D46FF080020A60C27DFE
:1050A000416AD21C914208D20B4A1432895C2268B0
:1050B0005160416A491C416204E02068C16821F0E6
:1050C0008001C160BDE870400148FDF737BF0000B6
:1050D000BC0E00204C000020986F0120806B002146
:1050E000C185C184416D084770B5846B20684069F3
:1050F00094F83D10C0F3C0100025212904D118B147
:10510000E584204600F0A7F82068406994F83E1036
:10511000C0F38010222904D118B1E585204600F0A3
:1051200073F8206C40F0100020642046616DBDE8EB
:10513000704008470146806B09680968C9052FD48B
:105140000021C18501680C3151E8002F22F48072E2
:1051500041E80023002BF5D10168143151E8002FFC
:1051600022F0010241E80023002BF5D1016814313F
:1051700051E8002F22F0400241E80023002BF5D136
:10518000202180F83E10016B012909D101680C3102
:1051900051E8002F22F0100241E80023002BF5D146
:1051A000016B012901D0016D0847826E818D104786
:1051B000806B016B012901D0C16C0847818D826E23
:1051C000490810470146806B09680968C90516D46B
:1051D0000021C1840168143151E8002F22F08002BF
:1051E00041E80023002BF5D101680C3151E8002F74
:1051F00042F0400241E80023002BF5D17047816C5A
:105200000847806B416C084701680C3151E8002F5A
:1052100022F4907241E80023002BF5D1016814318B
:1052200051E8002F22F0010241E80023002BF5D1C4
:10523000016B012909D101680C3151E8002F22F0DE
:10524000100241E80023002BF5D1202180F83E1008
:1052500000210163704701680C3151E8002F22F0F2
:10526000C00241E80023002BF5D1202180F83D1039
:105270007047000009494164094981640949C164D2
:105280000949016509494165094981650949C165BE
:10529000094901660949816670470000BF3400086A
:1052A000BD3400082F3400082D340008392F0008C1
:1052B0009F2E0008372F0008352F00089D2E00086C
:1052C00008B590F83E10222901D0022008BD82685E
:1052D0004FF480539A4201D1016921B1816A9A4207
:1052E0001BD04AB10AE00268816A5268C2F3080220
:1052F0000A80816A891C08E0026972B102685268FA
:1053000002F07F020A70816A491C8162C18D491EC8
:105310000904090CC18503D019E002685268F1E75D
:105320000168CA6822F02002CA600168CA6822F4D3
:105330008072CA6001684A6922F001024A61202134
:1053400080F83E10016B012903D0016D88470020D1
:1053500008BD0021016301680C3151E8002F22F0E3
:10536000100241E80023002BF5D101680A68D2063B
:1053700002D50A6849680091826E818D9047E6E700
:1053800070B5044600680169E26821F44051114398
:1053900001612169A068E26908436169114308431A
:1053A0002168CA6849F20C639A430243CA602068C4
:1053B0004169A26921F4407111434161314920687A
:1053C000884202D03049884202D1FCF779FB01E0E3
:1053D000FCF766FBE2690023192164253226B2F549
:1053E000004F626828D0A0FB0101930F9200FAF7EA
:1053F00049FF0146B0FBF5F06FF01802504301EB96
:10540000800006EB0010B0FBF5F000F0F002B1FBFD
:10541000F5F002EB0012B1FBF5F06FF01803584302
:1054200001EB800006EB0010B0FBF5F000F00F0080
:1054300021681044886070BDA0FB010192185B4197
:10544000FAF720FF0146B0FBF5F00201B1FBF5F0E1
:105450006FF01803584301EB800006EBC000B0FB6F
:10546000F5F000F0F80002EB4002B1FBF5F0584314
:1054700001EB800006EBC000B0FBF5F000F0070088
:10548000D6E70000001001400014014038B58162E9
:1054900082850025134604460564222084F83E00D8
:1054A000A26B1C48D063A26B1B481064A26B1B4804
:1054B000D064A06B0A4605652168A06B091DFBF747
:1054C0008FFC206801684068009084F83C50206997
:1054D00048B120680C3050E8001F41F4807140E86A
:1054E0000012002AF5D12068143050E8001F41F066
:1054F000010140E80012002AF5D12068143050E87C
:10550000001F41F0400140E80012002AF5D10020C0
:1055100038BD000035510008B1510008E9500008BD
:105520000148FDF70BBD0000300F0020FEE7000032
:1055300010B530210B48FAF7FDFE0A2001F094FE69
:10554000084818213030FAF7F5FE03F0EBFC142080
:1055500001F08AFEC022BDE8104030210148FAF770
:10556000E2BE0000E8D2002010B5124C03202061FA
:10557000606111A0A06104F1A800E0614FF48060B7
:1055800020620020A06260620BA12166E06204F547
:105590009561616610212067C4E91A10606709A14E
:1055A000E01DFAF7D2FE08A12046FAF7CEFE202031
:1055B000A07110BDECC900205465726D696E616CFC
:1055C0000000000052545400534547474552000024
:1055D0000269C1688A4203D88068401A104400E01A
:1055E000501A401E70472DE9F047C4681746894697
:1055F00006464FF000083069A04201D9051B02E0C1
:10560000B168201A0D1AB0686D1E001BA84200D8A0
:105610000546BD4200D33D4670682A4620444946AF
:10562000FAF761FEB0687F1B2C44A844A944A0424D
:1056300000D10024F460002FDDD14046BDE8F087A2
:105640002DE9F04104468846D4E90207C51BE1680C
:10565000606816460844B54206D94146FAF743FE4B
:10566000B819E060BDE8F0812A464146FAF73BFEF2
:10567000761B08EB050132466068FAF734FEE660F7
:10568000F0E700000FB4054B10B503A9044A0298D7
:1056900000F03CF810BC5DF814FB00003D6600080B
:1056A0006C0100200FB4084B10B504A902AA03989E
:1056B00000F02CF8044602A9002000F052FA20461F
:1056C00010BC5DF814FB0000635B00080907090EBD
:1056D000002804DB00F1E02080F80014704700F09F
:1056E0000F0000F1E02080F8141D704702E008C8A8
:1056F000121F08C1002AFAD170477047002001E04C
:1057000001C1121F002AFBD1704700002DE9FF4F95
:105710008DB00F460546002606E025280BD0DDE9B2
:105720000F1290476D1C761C28780028F5D111B017
:105730003046BDE8F08F0024A246A1460122E94987
:1057400000E0044315F8013F203B02FA03F0084251
:10575000F7D128782A2810D06FF02F022878A0F1EE
:105760003001092914D80AEB8A0102EB410144F007
:10577000020400EB010A6D1CF0E701CF5FEA000AAA
:1057800003D544F40054CAF1000A44F002046D1C2D
:1057900028782E2817D115F8010F44F004042A2880
:1057A0000ED06FF02F022878A0F1300109290AD815
:1057B00009EB890102EB410100EB01096D1CF2E7E5
:1057C00057F8049B6D1C28786C280FD006DC4C28F9
:1057D00017D068280DD06A2814D104E0742810D09E
:1057E0007A280FD10DE044F400140AE044F4801448
:1057F00001E044F440146978814202D104F5801438
:105800006D1C6D1C28786E281ED00CDC632830D0EF
:1058100004DC00288BD0582811D19FE0642867D081
:1058200069280CD164E073282DD004DC6F2872D075
:10583000702804D194E075286ED078286DD0DDE909
:105840000F129047761C4BE1C4F30250022806D099
:10585000032809D0042801CF09D0066040E101CF18
:10586000F117C0E900613BE101CF068038E1067025
:1058700036E117F8040B8DF8000000208DF80100C8
:10588000EB46012003E057F804BB4FF0FF306107FF
:105890004FF0000102D40DE008F1010188464945AE
:1058A0000FDA8045F8DB1BF808100029F4D108E076
:1058B00008F1010188468142FADB1BF80810002933
:1058C000F6D1DDE90F23AAEB08008146214600F05E
:1058D00031F9304400EB080604E0DDE90F121BF853
:1058E000010B9047B8F10108F7D221464846F2E093
:1058F0000A21C4F302524FF0000B0891022A04D08F
:1059000001CFC117032A09D00AE0FF1D27F00707BE
:10591000F7E8020108E02CE01EE01FE000B2C1172A
:10592000042A01D140B2C117021E71F1000206DA49
:105930000023D0EB030063EB01012D2202E02205DE
:1059400004D52B228DF82420012203E0E20701D0A8
:105950002022F7E7904653E00A210BE0102109E0EE
:1059600010214FF0000B44F004044FF00809089197
:1059700003E008214FF0000B0891C4F30252022A01
:1059800004D001CF0021032A06D006E0FF1D27F036
:105990000707F7E8020103E080B2042A00D1C0B291
:1059A0004FF0000822072BD52A78702A07D0DDF89F
:1059B00020C08CF0100C5CEA0B0C05D00EE04022ED
:1059C0008DF82420012208E050EA010306D030239C
:1059D0008DF824308DF8252002229046089B83F014
:1059E000080353EA0B030BD150EA010201D162070D
:1059F00006D530228DF824204FF00108A9F10109C5
:105A00002A78582A04D038A20B9208AA0A920BE0EE
:105A10003AA2F9E75B46089AFAF734FC0B9B9B5CC9
:105A20000A9A521E0A92137050EA0102F2D10A98A1
:105A3000ADEB000000F1200B600702D524F48034A8
:105A400001E04FF00109D94502DDA9EB0B0000E0B0
:105A5000002000EB0B0141440890AAEB010AE0038F
:105A600006D4DDE90F232146504600F063F80644D2
:105A70004FF0000908E009A911F80900DDE90F124B
:105A8000904709F10109761CC145F4DBE0030CD510
:105A9000DDE90F232146504600F04CF8064404E0AF
:105AA000DDE90F1230209047761C0899481E0890B7
:105AB0000029F5DC08E00A980A990078491C0A9147
:105AC000DDE90F129047761CBBF10001ABF1010B31
:105AD000F1DC21465046DDE90F2300F019F80644B9
